{
  "_format": "hh-sol-artifact-1",
  "contractName": "EIPCreatorBadge",
  "sourceName": "contracts/ID.sol",
  "abi": [
    {
      "inputs": [],
      "stateMutability": "nonpayable",
      "type": "constructor"
    },
    {
      "anonymous": false,
      "inputs": [
        {
          "indexed": false,
          "internalType": "address",
          "name": "owner",
          "type": "address"
        },
        {
          "indexed": false,
          "internalType": "uint256",
          "name": "tokenId",
          "type": "uint256"
        }
      ],
      "name": "Minted",
      "type": "event"
    },
    {
      "anonymous": false,
      "inputs": [
        {
          "indexed": false,
          "internalType": "address",
          "name": "owner",
          "type": "address"
        },
        {
          "indexed": false,
          "internalType": "uint256",
          "name": "tokenId",
          "type": "uint256"
        }
      ],
      "name": "Revoked",
      "type": "event"
    },
    {
      "inputs": [
        {
          "internalType": "address",
          "name": "owner",
          "type": "address"
        }
      ],
      "name": "balanceOf",
      "outputs": [
        {
          "internalType": "uint256",
          "name": "",
          "type": "uint256"
        }
      ],
      "stateMutability": "view",
      "type": "function"
    },
    {
      "inputs": [],
      "name": "emittedCount",
      "outputs": [
        {
          "internalType": "uint256",
          "name": "",
          "type": "uint256"
        }
      ],
      "stateMutability": "view",
      "type": "function"
    },
    {
      "inputs": [
        {
          "internalType": "address",
          "name": "owner",
          "type": "address"
        }
      ],
      "name": "giveThatManABadge",
      "outputs": [],
      "stateMutability": "nonpayable",
      "type": "function"
    },
    {
      "inputs": [
        {
          "internalType": "address",
          "name": "owner",
          "type": "address"
        }
      ],
      "name": "hasValid",
      "outputs": [
        {
          "internalType": "bool",
          "name": "",
          "type": "bool"
        }
      ],
      "stateMutability": "view",
      "type": "function"
    },
    {
      "inputs": [],
      "name": "holdersCount",
      "outputs": [
        {
          "internalType": "uint256",
          "name": "",
          "type": "uint256"
        }
      ],
      "stateMutability": "view",
      "type": "function"
    },
    {
      "inputs": [
        {
          "internalType": "uint256",
          "name": "tokenId",
          "type": "uint256"
        }
      ],
      "name": "isValid",
      "outputs": [
        {
          "internalType": "bool",
          "name": "",
          "type": "bool"
        }
      ],
      "stateMutability": "view",
      "type": "function"
    },
    {
      "inputs": [],
      "name": "name",
      "outputs": [
        {
          "internalType": "string",
          "name": "",
          "type": "string"
        }
      ],
      "stateMutability": "view",
      "type": "function"
    },
    {
      "inputs": [
        {
          "internalType": "uint256",
          "name": "tokenId",
          "type": "uint256"
        }
      ],
      "name": "ownerOf",
      "outputs": [
        {
          "internalType": "address",
          "name": "",
          "type": "address"
        }
      ],
      "stateMutability": "view",
      "type": "function"
    },
    {
      "inputs": [
        {
          "internalType": "bytes4",
          "name": "interfaceId",
          "type": "bytes4"
        }
      ],
      "name": "supportsInterface",
      "outputs": [
        {
          "internalType": "bool",
          "name": "",
          "type": "bool"
        }
      ],
      "stateMutability": "view",
      "type": "function"
    },
    {
      "inputs": [],
      "name": "symbol",
      "outputs": [
        {
          "internalType": "string",
          "name": "",
          "type": "string"
        }
      ],
      "stateMutability": "view",
      "type": "function"
    },
    {
      "inputs": [
        {
          "internalType": "uint256",
          "name": "index",
          "type": "uint256"
        }
      ],
      "name": "tokenByIndex",
      "outputs": [
        {
          "internalType": "uint256",
          "name": "",
          "type": "uint256"
        }
      ],
      "stateMutability": "view",
      "type": "function"
    },
    {
      "inputs": [
        {
          "internalType": "address",
          "name": "owner",
          "type": "address"
        },
        {
          "internalType": "uint256",
          "name": "index",
          "type": "uint256"
        }
      ],
      "name": "tokenOfOwnerByIndex",
      "outputs": [
        {
          "internalType": "uint256",
          "name": "",
          "type": "uint256"
        }
      ],
      "stateMutability": "view",
      "type": "function"
    },
    {
      "inputs": [
        {
          "internalType": "uint256",
          "name": "tokenId",
          "type": "uint256"
        }
      ],
      "name": "tokenURI",
      "outputs": [
        {
          "internalType": "string",
          "name": "",
          "type": "string"
        }
      ],
      "stateMutability": "view",
      "type": "function"
    }
  ],
  "bytecode": "0x60806040523480156200001157600080fd5b506040518060400160405280601181526020017f4549502043726561746f722042616467650000000000000000000000000000008152506040518060400160405280600381526020017f454950000000000000000000000000000000000000000000000000000000000081525081600490816200008f919062000365565b508060059081620000a1919062000365565b5033600860006101000a81548173ffffffffffffffffffffffffffffffffffffffff021916908373ffffffffffffffffffffffffffffffffffffffff16021790555050506200044c565b600081519050919050565b7f4e487b7100000000000000000000000000000000000000000000000000000000600052604160045260246000fd5b7f4e487b7100000000000000000000000000000000000000000000000000000000600052602260045260246000fd5b600060028204905060018216806200016d57607f821691505b60208210810362000183576200018262000125565b5b50919050565b60008190508160005260206000209050919050565b60006020601f8301049050919050565b600082821b905092915050565b600060088302620001ed7fffffffffffffffffffffffffffffffffffffffffffffffffffffffffffffffff82620001ae565b620001f98683620001ae565b95508019841693508086168417925050509392505050565b6000819050919050565b6000819050919050565b600062000246620002406200023a8462000211565b6200021b565b62000211565b9050919050565b6000819050919050565b620002628362000225565b6200027a62000271826200024d565b848454620001bb565b825550505050565b600090565b6200029162000282565b6200029e81848462000257565b505050565b5b81811015620002c657620002ba60008262000287565b600181019050620002a4565b5050565b601f8211156200031557620002df8162000189565b620002ea846200019e565b81016020851015620002fa578190505b6200031262000309856200019e565b830182620002a3565b50505b505050565b600082821c905092915050565b60006200033a600019846008026200031a565b1980831691505092915050565b600062000355838362000327565b9150826002028217905092915050565b6200037082620000eb565b67ffffffffffffffff8111156200038c576200038b620000f6565b5b62000398825462000154565b620003a5828285620002ca565b600060209050601f831160018114620003dd5760008415620003c8578287015190505b620003d4858262000347565b86555062000444565b601f198416620003ed8662000189565b60005b828110156200041757848901518255600182019150602085019450602081019050620003f0565b8683101562000437578489015162000433601f89168262000327565b8355505b6001600288020188555050505b505050505050565b6116dc806200045c6000396000f3fe608060405234801561001057600080fd5b50600436106100cf5760003560e01c80634f6ccce71161008c57806370a082311161006657806370a082311461023a57806395d89b411461026a578063c87b56dd14610288578063f577a500146102b8576100cf565b80634f6ccce7146101bc5780636352211e146101ec5780636b4ed21b1461021c576100cf565b806301ffc9a7146100d457806306fdde031461010457806326019c18146101225780632f745c59146101405780634394551214610170578063499ee6b6146101a0575b600080fd5b6100ee60048036038101906100e99190611003565b6102e8565b6040516100fb919061104b565b60405180910390f35b61010c610432565b60405161011991906110f6565b60405180910390f35b61012a6104c4565b6040516101379190611131565b60405180910390f35b61015a600480360381019061015591906111d6565b6104ce565b6040516101679190611131565b60405180910390f35b61018a60048036038101906101859190611216565b61057f565b604051610197919061104b565b60405180910390f35b6101ba60048036038101906101b59190611216565b6105ca565b005b6101d660048036038101906101d19190611243565b61061e565b6040516101e39190611131565b60405180910390f35b61020660048036038101906102019190611243565b610628565b604051610213919061127f565b60405180910390f35b61022461065e565b6040516102319190611131565b60405180910390f35b610254600480360381019061024f9190611216565b610668565b6040516102619190611131565b60405180910390f35b6102726106b4565b60405161027f91906110f6565b60405180910390f35b6102a2600480360381019061029d9190611243565b610746565b6040516102af91906110f6565b60405180910390f35b6102d260048036038101906102cd9190611243565b6107b5565b6040516102df919061104b565b60405180910390f35b60007fa511533d000000000000000000000000000000000000000000000000000000007bffffffffffffffffffffffffffffffffffffffffffffffffffffffff1916827bffffffffffffffffffffffffffffffffffffffffffffffffffffffff191614806103b357507f5b5e139f000000000000000000000000000000000000000000000000000000007bffffffffffffffffffffffffffffffffffffffffffffffffffffffff1916827bffffffffffffffffffffffffffffffffffffffffffffffffffffffff1916145b8061041b57507f2d57debd000000000000000000000000000000000000000000000000000000007bffffffffffffffffffffffffffffffffffffffffffffffffffffffff1916827bffffffffffffffffffffffffffffffffffffffffffffffffffffffff1916145b8061042b575061042a826107d8565b5b9050919050565b606060048054610441906112c9565b80601f016020809104026020016040519081016040528092919081815260200182805461046d906112c9565b80156104ba5780601f1061048f576101008083540402835291602001916104ba565b820191906000526020600020905b81548152906001019060200180831161049d57829003601f168201915b5050505050905090565b6000600654905090565b600080600160008573ffffffffffffffffffffffffffffffffffffffff1673ffffffffffffffffffffffffffffffffffffffff168152602001908152602001600020905080805490508310610558576040517f08c379a000000000000000000000000000000000000000000000000000000000815260040161054f90611346565b60405180910390fd5b80838154811061056b5761056a611366565b5b906000526020600020015491505092915050565b600080600360008473ffffffffffffffffffffffffffffffffffffffff1673ffffffffffffffffffffffffffffffffffffffff16815260200190815260200160002054119050919050565b6105d2610842565b610611576040517f08c379a0000000000000000000000000000000000000000000000000000000008152600401610608906113e1565b60405180910390fd5b61061a8161089a565b5050565b6000819050919050565b600061063382610905565b60010160009054906101000a900473ffffffffffffffffffffffffffffffffffffffff169050919050565b6000600754905090565b6000600160008373ffffffffffffffffffffffffffffffffffffffff1673ffffffffffffffffffffffffffffffffffffffff168152602001908152602001600020805490509050919050565b6060600580546106c3906112c9565b80601f01602080910402602001604051908101604052809291908181526020018280546106ef906112c9565b801561073c5780601f106107115761010080835404028352916020019161073c565b820191906000526020600020905b81548152906001019060200180831161071f57829003601f168201915b5050505050905090565b606061075182610905565b50600061075c6109b8565b905060008151111561079c57806107748460206109f5565b604051602001610785929190611484565b6040516020818303038152906040529150506107b0565b604051806020016040528060008152509150505b919050565b60006107c082610905565b60010160149054906101000a900460ff169050919050565b60007f01ffc9a7000000000000000000000000000000000000000000000000000000007bffffffffffffffffffffffffffffffffffffffffffffffffffffffff1916827bffffffffffffffffffffffffffffffffffffffffffffffffffffffff1916149050919050565b6000600860009054906101000a900473ffffffffffffffffffffffffffffffffffffffff1673ffffffffffffffffffffffffffffffffffffffff163373ffffffffffffffffffffffffffffffffffffffff1614905090565b600060065490506108ad82826001610c31565b7f30385c845b448a36257a6a1716e6ad2e1bc2cbe333cde1e69fe849ad6511adfe82826040516108de9291906114a8565b60405180910390a16001600660008282546108f99190611500565b92505081905550919050565b6000806000808481526020019081526020016000209050600073ffffffffffffffffffffffffffffffffffffffff168160010160009054906101000a900473ffffffffffffffffffffffffffffffffffffffff1673ffffffffffffffffffffffffffffffffffffffff16036109af576040517f08c379a00000000000000000000000000000000000000000000000000000000081526004016109a690611346565b60405180910390fd5b80915050919050565b60606040518060400160405280601e81526020017f68747470733a2f2f656970732e657468657265756d2e6f72672f6e74742f0000815250905090565b606060006002836002610a089190611534565b610a129190611500565b67ffffffffffffffff811115610a2b57610a2a611576565b5b6040519080825280601f01601f191660200182016040528015610a5d5781602001600182028036833780820191505090505b5090507f300000000000000000000000000000000000000000000000000000000000000081600081518110610a9557610a94611366565b5b60200101907effffffffffffffffffffffffffffffffffffffffffffffffffffffffffffff1916908160001a9053507f780000000000000000000000000000000000000000000000000000000000000081600181518110610af957610af8611366565b5b60200101907effffffffffffffffffffffffffffffffffffffffffffffffffffffffffffff1916908160001a90535060006001846002610b399190611534565b610b439190611500565b90505b6001811115610be3577f3031323334353637383961626364656600000000000000000000000000000000600f861660108110610b8557610b84611366565b5b1a60f81b828281518110610b9c57610b9b611366565b5b60200101907effffffffffffffffffffffffffffffffffffffffffffffffffffffffffffff1916908160001a905350600485901c945080610bdc906115a5565b9050610b46565b5060008414610c27576040517f08c379a0000000000000000000000000000000000000000000000000000000008152600401610c1e9061161a565b60405180910390fd5b8091505092915050565b600073ffffffffffffffffffffffffffffffffffffffff1660008084815260200190815260200160002060010160009054906101000a900473ffffffffffffffffffffffffffffffffffffffff1673ffffffffffffffffffffffffffffffffffffffff1614610cd5576040517f08c379a0000000000000000000000000000000000000000000000000000000008152600401610ccc90611686565b60405180910390fd5b6000600160008573ffffffffffffffffffffffffffffffffffffffff1673ffffffffffffffffffffffffffffffffffffffff1681526020019081526020016000208054905003610d3a57600160076000828254610d329190611500565b925050819055505b60405180606001604052803373ffffffffffffffffffffffffffffffffffffffff1681526020018473ffffffffffffffffffffffffffffffffffffffff16815260200182151581525060008084815260200190815260200160002060008201518160000160006101000a81548173ffffffffffffffffffffffffffffffffffffffff021916908373ffffffffffffffffffffffffffffffffffffffff16021790555060208201518160010160006101000a81548173ffffffffffffffffffffffffffffffffffffffff021916908373ffffffffffffffffffffffffffffffffffffffff16021790555060408201518160010160146101000a81548160ff021916908315150217905550905050600160008473ffffffffffffffffffffffffffffffffffffffff1673ffffffffffffffffffffffffffffffffffffffff16815260200190815260200160002080549050600260008573ffffffffffffffffffffffffffffffffffffffff1673ffffffffffffffffffffffffffffffffffffffff168152602001908152602001600020600084815260200190815260200160002081905550600160008473ffffffffffffffffffffffffffffffffffffffff1673ffffffffffffffffffffffffffffffffffffffff1681526020019081526020016000208290806001815401808255809150506001900390600052602060002001600090919091909150558015610fa1576001600360008573ffffffffffffffffffffffffffffffffffffffff1673ffffffffffffffffffffffffffffffffffffffff1681526020019081526020016000206000828254610f999190611500565b925050819055505b505050565b600080fd5b60007fffffffff0000000000000000000000000000000000000000000000000000000082169050919050565b610fe081610fab565b8114610feb57600080fd5b50565b600081359050610ffd81610fd7565b92915050565b60006020828403121561101957611018610fa6565b5b600061102784828501610fee565b91505092915050565b60008115159050919050565b61104581611030565b82525050565b6000602082019050611060600083018461103c565b92915050565b600081519050919050565b600082825260208201905092915050565b60005b838110156110a0578082015181840152602081019050611085565b60008484015250505050565b6000601f19601f8301169050919050565b60006110c882611066565b6110d28185611071565b93506110e2818560208601611082565b6110eb816110ac565b840191505092915050565b6000602082019050818103600083015261111081846110bd565b905092915050565b6000819050919050565b61112b81611118565b82525050565b60006020820190506111466000830184611122565b92915050565b600073ffffffffffffffffffffffffffffffffffffffff82169050919050565b60006111778261114c565b9050919050565b6111878161116c565b811461119257600080fd5b50565b6000813590506111a48161117e565b92915050565b6111b381611118565b81146111be57600080fd5b50565b6000813590506111d0816111aa565b92915050565b600080604083850312156111ed576111ec610fa6565b5b60006111fb85828601611195565b925050602061120c858286016111c1565b9150509250929050565b60006020828403121561122c5761122b610fa6565b5b600061123a84828501611195565b91505092915050565b60006020828403121561125957611258610fa6565b5b6000611267848285016111c1565b91505092915050565b6112798161116c565b82525050565b60006020820190506112946000830184611270565b92915050565b7f4e487b7100000000000000000000000000000000000000000000000000000000600052602260045260246000fd5b600060028204905060018216806112e157607f821691505b6020821081036112f4576112f361129a565b5b50919050565b7f546f6b656e20646f6573206e6f74206578697374000000000000000000000000600082015250565b6000611330601483611071565b915061133b826112fa565b602082019050919050565b6000602082019050818103600083015261135f81611323565b9050919050565b7f4e487b7100000000000000000000000000000000000000000000000000000000600052603260045260246000fd5b7f596f75206d7573742062652074686520636f6e74726163742063726561746f72600082015250565b60006113cb602083611071565b91506113d682611395565b602082019050919050565b600060208201905081810360008301526113fa816113be565b9050919050565b600081519050919050565b600081905092915050565b600061142282611401565b61142c818561140c565b935061143c818560208601611082565b80840191505092915050565b600081905092915050565b600061145e82611066565b6114688185611448565b9350611478818560208601611082565b80840191505092915050565b60006114908285611417565b915061149c8284611453565b91508190509392505050565b60006040820190506114bd6000830185611270565b6114ca6020830184611122565b9392505050565b7f4e487b7100000000000000000000000000000000000000000000000000000000600052601160045260246000fd5b600061150b82611118565b915061151683611118565b925082820190508082111561152e5761152d6114d1565b5b92915050565b600061153f82611118565b915061154a83611118565b925082820261155881611118565b9150828204841483151761156f5761156e6114d1565b5b5092915050565b7f4e487b7100000000000000000000000000000000000000000000000000000000600052604160045260246000fd5b60006115b082611118565b9150600082036115c3576115c26114d1565b5b600182039050919050565b7f537472696e67733a20686578206c656e67746820696e73756666696369656e74600082015250565b6000611604602083611071565b915061160f826115ce565b602082019050919050565b60006020820190508181036000830152611633816115f7565b9050919050565b7f43616e6e6f74206d696e7420616e2061737369676e656420746f6b656e000000600082015250565b6000611670601d83611071565b915061167b8261163a565b602082019050919050565b6000602082019050818103600083015261169f81611663565b905091905056fea2646970667358221220b9bbf0302a10a73293e356e05ae94aa09798add58176a43d8f11fbc7bb24f9ba64736f6c63430008120033",
  "linkReferences": {},
  "deployedLinkReferences": {}
}